S01300006C696E655F7472616365722E7372656389
S113000045C0000061C000005FC000005DC000008A
S11300105BC0000059C0000057C0000055C000007C
S113002053C0000051C000004FC000004DC000008C
S11300304BC0000049C0000047C0000045C000009C
S113004043C0000041C000003FC000003DC00000AC
S11300503BC0000039C0000037C0000035C00000BC
S113006033C0000050C100002FC000002DC00000AC
S11300702BC0000029C0000027C0000025C00000DC
S113008023C0000021C000001FC0000011241FBEB7
S1130090CFEFD0E1DEBFCDBF11E0A0E0B1E0E6E5F7
S11300A0F9E100E00BBF02C007900D92A831B1073F
S11300B0D9F721E0A8E1B1E001C01D92AE34B20746
S11300C0E1F7C6D60C94A90C9BCF8FE39FE101976F
S11300D0F1F700C00000089520E030E008C00F925E
S11300E00F900F920F900F920F902F5F3F4F281792
S11300F03907A8F30895CF93C82FE7DF8C2F807FAB
S113010085BB85B38E7F85BB85B38D7F85BB81E041
S113011090E0E2DF85B3846085BB81E090E0DCDFC2
S113012085B38B7F85BB20E1C29FC001112485BBB1
S113013085B38E7F85BB85B38D7F85BB81E090E0E1
S1130140CBDF85B3846085BB81E090E0C5DF85B3F8
S11301508B7F85BBCF91089581E0CDCF0895811128
S113016004C080E8860FC7CF089580EC860FC3CF04
S11301700895CF93C82FA9DF8C2F807F85BB85B3CB
S1130180816085BB85B38D7F85BB81E090E0A4DF72
S113019085B3846085BB81E090E09EDF85B38B7F6F
S11301A085BB20E1C29FC001112485BB85B381605A
S11301B085BB85B38D7F85BB81E090E08DDF85B302
S11301C0846085BB81E090E087DF85B38B7F85BB4E
S11301D0CF910895CF93DF93EA01C1DF02C0219646
S11301E0C8DF88818111FBCFDF91CF910895EF9211
S11301F0FF920F931F93CF93DF93CDB7DEB7C4560F
S1130200D1090FB6F894DEBF0FBECDBFF82EE62E8F
S11302108E010F5F1F4F84E6F80111928A95E9F76A
S11302205F934F938CE091E09F938F931F930F9371
S11302300E94CE09A8016E2D8F2DCCDF0F900F9058
S11302400F900F900F900F90CC59DF4F0FB6F8948A
S1130250DEBF0FBECDBFDF91CF911F910F91FF90F5
S1130260EF9008952FEF86E791E021508040904071
S1130270E1F700C000008FEF84BB85B38B7F85BBA3
S11302808FE59AEE0197F1F700C0000080E233DFBA
S11302908FE19EE40197F1F700C0000080E22BDFBC
S11302A088EC90E019DF80E226DF88E224DF8CE02E
S11302B022DF81E020DF86E01EDF4FE051E060E0D6
S11302C080E088CF089582B1886082B982B18F7747
S11302D082B910928B00EAE8F0E08081826C80831E
S11302E010928C00EDE7F0E08081806280830895B5
S11302F083B1886083B985E38A95F1F7000083B1FF
S1130300877F83B908951F920F920FB60F9211241D
S11303100BB60F928F939F93EF93FF9380911801E5
S1130320811111C0809180009091810090931C01F3
S113033080931B01EAE8F0E080818F7B808381E079
S11303408093180114C080911801813081F4809148
S113035080009091810090931A0180931901EAE83A
S1130360F0E080818064808382E080931801FF91B3
S1130370EF919F918F910F900BBE0F900FBE0F9036
S11303801F901895B5DF80E395E7A0E0B0E007C0C3
S113039025E02A95F1F700000197A109B109209100
S11303A01801223020F40097A105B10589F7892BA3
S11303B08A2B8B2B21F12091190130911A01809104
S11303C01B0190911C01281B390BA4E5B1E0C3D794
S11303D02AE330E040E050E09CD7109218012F3F10
S11303E08FEF380779F0C901992324F488279927D6
S11303F0821B930B6AE070E079D7CB0108958FEFED
S11304009FEF089580E197E208958FE687BB82EA23
S11304108FBD8AE18EBD10927A0087EC90E097BD83
S113042086BD1DBC1CBC089580E487B986E886B9E6
S1130430089597B1907F8F70892B87B986B18064B6
S113044086B93699FECF84B195B1089583E080933F
S11304502D0180E090E027C0FC01EE0FFF1FEE5B52
S1130460FE4F208131812932310574F021E030E0E2
S1130470082E02C0220F331F0A94E2F730912D0197
S1130480232B20932D010EC021E030E0082E02C062
S1130490220F331F0A94E2F730912D012095232374
S11304A020932D01019686309105B4F280912D019F
S11304B08BBB089580E090E029C09C01220F331F7C
S11304C0F901EF5DFE4F40815181F901EC5CFE4F73
S11304D020813181421753073CF4FC01EE0FFF1FCA
S11304E0EF5DFE4F31832083FC01EE0FFF1FE050D0
S11304F0FF4F40815181241735073CF4FC01EE0F76
S1130500FF1FE050FF4F3183208301968630910511
S1130510A4F20895AF92BF92CF92DF92EF92FF922E
S11305200F931F93CF93DF9300E010E033C0E801F3
S1130530CC0FDD1FFE01EC5CFE4F60817181FE017A
S1130540E050FF4FA080B1806A197B09072E000C90
S1130550880B990BB4D56B017C01FE01EF5DFE4F56
S1130560608171816A197B09072E000C880B990B35
S1130570A6D59B01AC01C701B60106D520E030E049
S113058048EC52E450D668D5CE5BDE4F798368835D
S11305900F5F1F4F0630110554F2DF91CF911F9169
S11305A00F91FF90EF90DF90CF90BF90AF900895A0
S11305B0109241011092400120E030E01DC0F90189
S11305C0EE0FFF1FE80FF91F40815181473351059A
S11305D07CF441E050E051834083409140015091CC
S11305E041014F5F5F4F509341014093400102C06E
S11305F0118210822F5F3F4F2630310504F3209182
S11306002E0130912F012935324040F420912E01E2
S113061030912F01283C310508F04CC020912E0167
S113062030912F012D3B324068F4209140013091EC
S11306304101232B39F420912E0130912F012C32CA
S11306403140E8F5209140013091410121153105F7
S1130650D9F125303105ECF5FC012081318142814D
S11306605381220F331F240F351F319521953109F2
S1130670220F331F84819581281B390B6681778172
S1130680620F731F80859185880F991F680F791FEA
S113069082859385880F991F880F991F680F791F8A
S11306A0072E000C880B990B0AD5562F472F382F8D
S11306B0292F13C050E040E036E923E40EC050E097
S11306C040E031E624E409C050E040EC39E724E49A
S11306D004C050E040E038EC22E4652F742F832FEF
S11306E0922F0895109241011092400120E030E0D1
S11306F027C0F901EE0FFF1FE80FF91F4081518158
S11307004932510554F4D901AA0FBB1FAC5CBE4F4A
S11307104D915C91493751057CF041E050E05183A3
S1130720408340914001509141014F5F5F4F50938E
S113073041014093400102C0118210822F5F3F4F5C
S113074026303105B4F22091300130913101A901F4
S1130750475951094138510508F46EC0283141E028
S113076034070CF06EC0215531092634310508F4E4
S11307706DC020914001309141012115310509F4EA
S11307806AC02630310551F588B3807F856088BB07
S113079086B597B51BBC1ABC86B597B519BC18BCF1
S11307A08FEF97EA21E6815090402040E1F700C0A6
S11307B0000080912E0190912F018935924008F01C
S11307C04FC080912E0190912F01883C910508F033
S11307D04CC050E040E03AEF23E44BC0FC012081E0
S11307E0318142815381220F331F240F351F3195EC
S11307F021953109220F331F84819581281B390BE0
S113080066817781620F731F80859185880F991F98
S1130810680F791F82859385880F991F880F991F08
S1130820680F791F072E000C880B990B48D4562F9C
S1130830472F382F292F1DC050E040E038E423E42F
S113084018C050E040E038EC23E413C050E040E826
S113085038EC23E40EC050E040EC39E724E409C04E
S113086050E040E03AEF23E404C050E040E036E9D1
S113087023E4652F742F832F922F0895CF92DF9254
S1130880EF92FF926B017C0120E030EC49E754E4E5
S113089077D3811152C088B3807F856088BB86B5C9
S11308A097B51BBC1ABC86B597B519BC18BC2FEFFD
S11308B089EF90E0215080409040E1F700C00000B3
S11308C088B3807F8A6088BB66B577B580E090E0A6
S11308D0F4D32DEC3CEC4CE45FE3A5D4C2D37BBD54
S11308E06ABD66B577B580E090E0E7D32DEC3CECCB
S11308F04CE45FE398D4B5D379BD68BD2FEF87EEA0
S113090093E0215080409040E1F700C0000088B39C
S1130910807F856088BB86B597B51BBC1ABC86B53D
S113092097B519BC18BC2FEF89EF90E02150804097
S11309309040E1F700C00000FDC120E030E041E656
S113094054E4C701B6011CD3811173C02FEF87EAA9
S113095091E6215080409040E1F700C0000088B348
S1130960807F856088BB86B597B51BBC1ABC86B5ED
S113097097B519BC18BC2FEF89EF90E02150804047
S11309809040E1F700C0000088B3807F866088BB98
S113099086B597B59BBD8ABD86B597B599BD88BD0B
S11309A02FEF87E99AE3215080409040E1F700C09F
S11309B0000088B3807F856088BB86B597B51BBC73
S11309C01ABC86B597B519BC18BC2FEF89EF90E017
S11309D0215080409040E1F700C0000088B3807F40
S11309E0856088BB86B597B59BBD8ABD86B597B52E
S11309F099BD88BD2FEF8FE097E221508040904051
S1130A00E1F700C0000088B3807F856088BB86B5AD
S1130A1097B51BBC1ABC86B597B519BC18BC2FEF8B
S1130A2089EF90E0215080409040E1F700C0000041
S1130A3081C120E030E048EC52E4C701B601A0D205
S1130A40811128C080911D0190911E0101969093FF
S1130A501E0180931D0188B3807F856088BB66B5C5
S1130A6077B580E090E029D32AE939E949E15FE3E9
S1130A70DAD3F7D27BBD6ABD86B597B599BD88BD7B
S1130A802FEF89E698E1215080409040E1F700C0C3
S1130A90000050C120E030E048E453E4C701B6014F
S1130AA06FD281110DC088B3807F856088BB86B505
S1130AB097B59BBD8ABD86B597B599BD88BD3AC12A
S1130AC020E030E046E953E4C701B60159D2811170
S1130AD00DC088B3807F856088BB86B597B51BBC85
S1130AE01ABC86B597B519BC18BC24C120E030E007
S1130AF048EC53E4C701B60143D2811116C088B350
S1130B00807F856088BB86B597B59BBD8ABD66B579
S1130B1077B580E090E0D1D22DEC3CEC4CE45FE37F
S1130B2082D39FD279BD68BD05C120E030E848EC8E
S1130B3053E4C701B60124D2811116C088B3807F63
S1130B40856088BB66B577B580E090E0B6D22DECC1
S1130B503CEC4CE45FE367D384D27BBD6ABD86B5CD
S1130B6097B599BD88BDE6C020E030E04AEF53E474
S1130B70C701B60105D2811116C088B3807F856094
S1130B8088BB86B597B59BBD8ABD86B597B599BD1B
S1130B9088BD2FEF83ED90E3215080409040E1F732
S1130BA000C00000C7C020E030E040E85FE3C701B8
S1130BB0B601E6D11816B4F020E030E040E85FEB6F
S1130BC0C701B6012CD388236CF088B3807F85607D
S1130BD088BB86B597B59BBD8ABD86B597B599BDCB
S1130BE088BDA8C020E030E040E85FEBC701B60153
S1130BF0C7D1882344F520E030E040E450ECC7013D
S1130C00B6010DD38823FCF088B3807F856088BB50
S1130C1066B577B580E090E050D22AE939E949E138
S1130C205FE301D31ED27BBD6ABD66B577B580E0B4
S1130C3090E043D22AE939E949E95FE3F4D211D2D9
S1130C4079BD68BD77C020E030E040E85FE3C701CC
S1130C50B601E5D2181644F520E030E040E450E453
S1130C60C701B6018DD11816FCF088B3807F85606A
S1130C7088BB66B577B580E090E01FD22AE939E9F0
S1130C8049E95FE3D0D2EDD17BBD6ABD66B577B5E6
S1130C9080E090E012D22AE939E949E15FE3C3D266
S1130CA0E0D179BD68BD46C020E030E040E450ECBE
S1130CB0C701B60165D18823B4F488B3807F856009
S1130CC088BB86B597B51BBC1ABC66B577B580E002
S1130CD090E0F3D12AE939E949E95FE3A4D2C1D12B
S1130CE079BD68BD27C020E030E040E450E4C7018E
S1130CF0B60195D21816F4F420E030E040E251E455
S1130D00C701B6013DD18823ACF488B3807F8560E8
S1130D1088BB66B577B580E090E0CFD12AE939E9A0
S1130D2049E95FE380D29DD17BBD6ABD86B597B5A5
S1130D3019BC18BCFF90EF90DF90CF900895CF932B
S1130D40DF9321E030E040E050E00DC0F901EE0F08
S1130D50FF1FE80FF91F60817181461757070CF4D4
S1130D60AB012F5F3F4F2630310584F321E030E0A3
S1130D7060E070E00EC0F901EE0FFF1FEC5CFE4F67
S1130D800190F081E02D6E177F070CF4BF012F5FF7
S1130D903F4F263031057CF321E030E0A4E6B0E09B
S1130DA00EC0F901EE0FFF1FE80FF91F0190F0814B
S1130DB0E02DEA17FB070CF4DF012F5F3F4F2630CD
S1130DC031057CF381E090E0CFEFD3E00CC0FC016F
S1130DD0EE0FFF1FEC5CFE4F208131812C173D0785
S1130DE00CF4E9010196863091058CF34A355105DE
S1130DF084F4CA3AD1056CF46C3D710554F4AC34F6
S1130E00B1053CF481E090E09093200180931F01B0
S1130E100DC04135510554F0C536D1053CF0693C4F
S1130E20710524F01092200110921F01DF91CF91DF
S1130E300895CF93DF9380E0FCDAC0E3D1E0998397
S1130E40888387E0F6DA9B838A83DF91CF910895C4
S1130E50EBDADBDA07DA80D936DA8FEF8ABB11BA3C
S1130E607894C12CD12C760100E010E0809902C066
S1130E7001E010E081E0DDDABC0180E090E01DD10A
S1130E802AE939E949ED5FE3CED1C4E3D1E0E4D006
S1130E907983688382E0CDDA9B838A8383E0C9DA2D
S1130EA09D838C8384E0C5DA9F838E8385E0C1DAD9
S1130EB0BC0180E090E001D123E333E343EB5FE343
S1130EC063D0CAD07987688786E0B3DABC0180E052
S1130ED090E0F3D02AE939E949E95FE3A4D1BCD031
S1130EE07B876A874FDA90932F0180932E01A1DFCD
S1130EF0E1DA10DBABDA4881598160E080E077D930
S1130F004A815B8165E080E072D94C815D816AE051
S1130F1080E06DD94E815F8160E081E068D94885C9
S1130F20598565E081E063D94A855B856AE081E0A3
S1130F305ED982E491E003DF80911F01909120014A
S1130F40009731F482E491E033DB6B017C0107C04C
S1130F50019729F482E491E0C5DB6B017C01013047
S1130F60110519F4C701B60189DC2FEF80E792E07F
S1130F70215080409040E1F700C00000EDD876CFCA
S1130F80D9D008F481E008950CD00FC107D140F006
S1130F90FED030F021F45F3F19F0F0C0511139C197
S1130FA0F3C014D198F39923C9F35523B1F3951BD6
S1130FB0550BBB27AA2762177307840738F09F5F76
S1130FC05F4F220F331F441FAA1FA9F333D00E2EE5
S1130FD03AF0E0E830D091505040E695001CCAF752
S1130FE029D0FE2F27D0660F771F881FBB1F261717
S1130FF037074807AB07B0E809F0BB0B802DBF01EA
S1131000FF2793585F4F2AF09E3F510568F0B6C002
S113101000C15F3FECF3983EDCF3869577956795C6
S1131020B795F7959F5FC9F7880F911D969587959A
S113103097F90895E1E0660F771F881FBB1F6217B9
S113104073078407BA0720F0621B730B840BBA0B77
S1131050EE1F88F7E095089504D06894B111D9C0C3
S11310600895BCD088F09F5790F0B92F9927B751B5
S1131070A0F0D1F0660F771F881F991F1AF0BA9558
S1131080C9F712C0B13081F0C3D0B1E00895C0C037
S1131090672F782F8827B85F39F0B93FCCF386954E
S11310A077956795B395D9F73EF4909580957095AB
S11310B061957F4F8F4F9F4F0895E89409C097FB28
S11310C03EF490958095709561957F4F8F4F9F4F1B
S11310D09923A9F0F92F96E9BB279395F69587955F
S11310E077956795B795F111F8CFFAF4BB0F11F422
S11310F060FF1BC06F5F7F4F8F4F9F4F16C08823C9
S113110011F096E911C0772321F09EE8872F762FFE
S113111005C0662371F096E8862F70E060E02AF03F
S11311209A95660F771F881FDAF7880F969587952B
S113113097F90895990F0008550FAA0BE0E8FEEF00
S113114016161706E807F907C0F012161306E40787
S1131150F50798F0621B730B840B950B39F40A2680
S113116061F0232B242B252B21F408950A2609F45E
S1131170A140A6958FEF811D811D089597F99F6762
S113118080E870E060E008959FEF80EC089500240B
S11311900A941616170618060906089500240A94D8
S11311A012161306140605060895092E0394000C5E
S11311B011F4882352F0BB0F40F4BF2B11F460FFED
S11311C004C06F5F7F4F8F4F9F4F089557FD905816
S11311D0440F551F59F05F3F71F04795880F97FBF7
S11311E0991F61F09F3F79F08795089512161306B1
S11311F01406551FF2CF4695F1DF08C016161706E0
S11312001806991FF1CF8695710561050894089514
S1131210E894BB2766277727CB0197F908958ADFDF
S113122008F48FEF08950BD0C0CFB1DF28F0B6DFFC
S113123018F0952309F0A2CFA7CF1124EACFC6DF77
S1131240A0F3959FD1F3950F50E0551F629FF001D5
S1131250729FBB27F00DB11D639FAA27F00DB11D2E
S1131260AA1F649F6627B00DA11D661F829F2227B7
S1131270B00DA11D621F739FB00DA11D621F839F3E
S1131280A00D611D221F749F3327A00D611D231F14
S1131290849F600D211D822F762F6A2F11249F5762
S11312A050408AF0E1F088234AF0EE0FFF1FBB1F85
S11312B0661F771F881F91505040A9F79E3F510524
S11312C070F05CCFA6CF5F3FECF3983EDCF38695DD
S11312D077956795B795F795E7959F5FC1F7FE2BCF
S11312E0880F911D9695879597F9089597FB072E7A
S11312F016F4009406D077FD08D03CD007FC05D046
S11313003EF4909581959F4F0895709561957F4F18
S11313100895A1E21A2EAA1BBB1BFD010DC0AA1F32
S1131320BB1FEE1FFF1FA217B307E407F50720F04A
S1131330A21BB30BE40BF50B661F771F881F991FC5
S11313401A9469F760957095809590959B01AC010E
S1131350BD01CF010895A29FB001B39FC001A39F17
S1131360700D811D1124911DB29F700D811D1124DA
S1131370911D0895AA1BBB1B51E107C0AA1FBB1FE7
S1131380A617B70710F0A61BB70B881F991F5A950D
S1131390A9F780959095BC01CD0108950F931F93F3
S11313A0CF93DF93CDB7DEB72E970FB6F894DEBF99
S11313B00FBECDBF0D891E8986E08C831A830983F5
S11313C08FEF9FE79E838D83AE01475E5F4F6F89EA
S11313D0788DCE01019610D0EF81F885E00FF11FD2
S11313E010822E960FB6F894DEBF0FBECDBFDF91EC
S11313F0CF911F910F9108952F923F924F925F9238
S11314006F927F928F929F92AF92BF92CF92DF9210
S1131410EF92FF920F931F93CF93DF93CDB7DEB775
S11314202B970FB6F894DEBF0FBECDBF6C017B01C6
S11314308A01FC0117821682838181FFBFC1CE011C
S113144001963C01F6019381F70193FD859193FF89
S113145081917F01882309F4ADC1853239F493FD6C
S1131460859193FF81917F01853221F4B60190E04B
S1131470D6D1E8CF912C212C312CFFE1F315D8F0F3
S11314808B3279F038F4803279F08332A1F4232D51
S113149020611DC08D3261F0803369F4232D2160F9
S11314A016C0832D8260382EE32DE4603E2E2AC0C0
S11314B0F32DF8601DC037FC2DC020ED280F2A3015
S11314C040F08E32B9F436FC75C1232D2064322EDF
S11314D019C036FE06C08AE0989E200D1124922E73
S11314E011C0EAE02E9E200D1124222EF32DF0626D
S11314F03F2E08C08C3621F4832D8068382E02C01C
S1131500883641F4F70193FD859193FF81917F0122
S11315108111B3CF982F9F7D9554933028F40C5F9D
S11315201F4F9FE399830DC0833631F0833771F0E9
S1131530833509F055C020C0F801808189830E5F8E
S11315401F4F88248394912C530112C02801F2E088
S11315504F0E511CF801A080B18036FE03C0692DE6
S113156070E002C06FEF7FEFC5014ED14C018201E4
S1131570F32DFF773F2E15C0280122E0420E511CA7
S1131580F801A080B18036FE03C0692D70E002C06E
S11315906FEF7FEFC5012DD14C01F32DF0683F2E85
S11315A0820133FC19C0822D90E088169906A0F4BC
S11315B0B60180E290E033D12A94F5CFF50137FCEF
S11315C0859137FE81915F01B60190E028D1211009
S11315D02A9421E0821A91088114910479F7E1C0D8
S11315E0843611F0893639F5F80137FE07C0608179
S11315F07181828193810C5F1F4F08C0608171816A
S1131600072E000C880B990B0E5F1F4FF32DFF76EE
S11316103F2E97FF09C090958095709561957F4FF7
S11316208F4F9F4FF0683F2E2AE030E0A30133D163
S1131630882E861844C0853731F4232D2F7EB22E90
S11316402AE030E025C0932D997FB92E8F36C1F062
S113165018F4883579F0AEC0803719F0883721F056
S1131660A9C0E92FE061BE2EB4FE0DC0FB2DF460CD
S1131670BF2E09C034FE0AC0292F2660B22E06C030
S113168028E030E005C020E130E002C020E132E093
S1131690F801B7FE07C060817181828193810C5F7C
S11316A01F4F06C06081718180E090E00E5F1F4F84
S11316B0A301F1D0882E8618FB2DFF773F2E36FE2E
S11316C00DC0232D2E7FA22E891458F434FE0BC096
S11316D032FC09C0832D8E7EA82E05C0B82CA32C05
S11316E003C0B82C01C0B92CA4FE0FC0FE01E80D44
S11316F0F11D8081803321F49A2D997EA92E09C091
S1131700A2FE06C0B394B39404C08A2D867809F06F
S1131710B394A3FC10C0A0FE06C0B21480F4280C3D
S1131720922C9B180DC0B21458F4B60180E290E0DC
S113173076D0B394F8CFB21418F42B1802C0982CB6
S1131740212CA4FE0FC0B60180E390E068D0A2FE75
S113175016C0A1FC03C088E790E002C088E590E0D1
S1131760B6010CC08A2D867851F0A1FE02C08BE22E
S113177001C080E2A7FC8DE2B60190E050D089144C
S113178030F4B60180E390E04AD09A94F8CF8A947A
S1131790F301E80DF11D8081B60190E040D0811085
S11317A0F6CF222009F44ECEB60180E290E037D085
S11317B02A94F7CFF6018681978102C08FEF9FEFBD
S11317C02B960FB6F894DEBF0FBECDBFDF91CF913D
S11317D01F910F91FF90EF90DF90CF90BF90AF904B
S11317E09F908F907F906F905F904F903F902F903D
S11317F00895FC010590615070400110D8F7809560
S113180090958E0F9F1F0895FC01615070400190C8
S11318100110D8F7809590958E0F9F1F08950F9310
S11318201F93CF93DF93FB01238121FD03C08FEF2F
S11318309FEF2CC022FF16C0468157812481358139
S11318404217530744F4A081B1819D012F5F3F4F9C
S1131850318320838C93268137812F5F3F4F3783D9
S1131860268314C08B01EC01FB010084F185E02D7B
S11318700995892BE1F6D80116968D919C911797BD
S1131880019617969C938E931697CE01DF91CF9174
S11318901F910F910895FA01AA27283051F12031A0
S11318A081F1E8946F936E7F6E5F7F4F8F4F9F4FF0
S11318B0AF4FB1E03ED0B4E03CD0670F781F891F32
S11318C09A1FA11D680F791F8A1F911DA11D6A0F00
S11318D0711D811D911DA11D20D009F468943F91B3
S11318E02AE0269F11243019305D3193DEF6CF01B2
S11318F00895462F4770405D4193B3E00FD0C9F778
S1131900F6CF462F4F70405D4A3318F0495D31FDE4
S11319104052419302D0A9F7EACFB4E0A695979537
S1131920879577956795BA95C9F70097610571050D
S113193008959B01AC010A2E069457954795379557
S11319402795BA95C9F7620F731F841F951FA01DB1
S10919500895F894FFCF96
S11319560004000400040004000400042564004993
S10B19666E6974204F4B000070
S9030000FC
